:1000000000C008E00EBF0FEF0DBF259A569A579A11
:1000100052982D985E985F985A9800E00093C0001F
:100020000093C50007E60093C40008E00093C100F8
:1000300006E00093C200CAE0B0E092E371D0AA23C8
:1000400031F00ED019D06CD0AA23D9F700C026D039
:100050002ED036D0F3CF5E9A40D05E9857D0089518
:100060005E9A3BD048D05E9854D008955E9A35D0C1
:1000700034D05E9852D0089553D0AA2311F02D9A0F
:1000800001C02D98CA9549F4CAE08F2F7AD08E2FDF
:1000900078D08DE064D08AE062D0089512E3E0DF8A
:1000A000EBDFAA2309F0CDCF1A95C9F7089512E323
:1000B000DDDFE2DFAA2309F0C4CF1A95C9F708955E
:1000C00012E3C9DFD9DFAA2309F0BBCF1A95C9F71C
:1000D000089548E24A95F1F7089555E344E64A95B4
:1000E000F1F75A95D9F7089555E044E64A95F1F7A6
:1000F0005A95D9F708955AE144E64A95F1F75A9589
:10010000D9F70895EADF6A95E9F7089563E1FADF20
:10011000089562E1F7DFEFDF089562E1F3DF08950C
:10012000A0E05F9AD6DF5F982FEF09B102FF01C010
:1001300005C02A95D1F7FF27EE270895FF27EE2760
:1001400009B102FF04C0E395D9F7F395F9CF40E078
:1001500054E0E417F50708F00895A1E00895009130
:10016000C00005FFFCCF8093C60008958F708A30D1
:1001700020F08A5001E4800F02C000E3800FEFDF1F
:0E0180000895082F8295F2DF802FF0DF08959A
:00000001FF
